:100000000C9435010C9466010C9466010C94660105
:100010000C9466010C9466010C9466010C946601C4
:100020000C9466010C9466010C9466010C946601B4
:100030000C9466010C9466010C9466010C946601A4
:100040000C9466010C9466010C9466010C94660194
:100050000C9466010C9466010C9466010C94BF0329
:100060000C9466010C9433040C9409040C946601FE
:100070000C9466010C9466010C9466010C94660164
:100080000C9466010C9466010C9466010C94660154
:100090000C9466010C9466010C9466010C94660144
:1000A0000C9466010C9466010C9466010C94660134
:1000B0000C9466010C9466010C9466010C94660124
:1000C0000C9466010C9466010C9466010C94660114
:1000D0000C9466010C9466010C9466010C94660104
:1000E0000C9466010C9455020C94AF020C942206F9
:1000F0000C94D6010C94CE010C94FC020C94980143
:100100000C94C4010C9477020C94D2010C94C80195
:100110000C94B7010C9469020C94B3010C94EE0199
:100120000C9446020C94AF010C94BB010C94DC01BE
:100130000C94E4010C94BE010C94EA010C94E001CF
:100140000C949D010C94190200002100240027004A
:100150002A002D00300033000101000004010701D6
:100160000A01000020002300260029002C002F0097
:100170003200000100000301060109010000220015
:10018000250028002B002E00310034000201000061
:10019000050108010B010505050507050808080804
:1001A000020202020A0A080804040404010101010F
:1001B000010101010303030303030303040707070A
:1001C0000C0C0C0C0C0C0C0C0202020206060606AF
:1001D000060606060B0B0B0B0B0B0B0B010210207C
:1001E000200808102040102040800201020108046D
:1001F0000201010204081020408080402010080401
:100200000201800402018040201008040201080459
:10021000020101020408102040800102040810209D
:10022000408000000A0B02090C0D0E0807030401B0
:1002300000000000000000000000000000000000BE
:10024000000000000000000000000000000012118B
:10025000100000000000000000000000000000008E
:100260000000000000000000220611241FBECFEF96
:10027000D1E2DEBFCDBF00E00CBF12E0A0E0B2E0F3
:10028000E4E3FDE000E00BBF02C007900D92A8314F
:10029000B107D9F722E0A8E1B2E001C01D92A23C6B
:1002A000B207E1F711E0C5E3D1E000E006C0219715
:1002B0000109802FFE010E949006C433D10780E01F
:1002C0000807A9F70E94AE040C9498060C9400004D
:1002D000282F30E0F901EE5DFD4F9491F901E452D1
:1002E000FE4F44912A563E4FF9012491222309F4EE
:1002F00035C0992311F191509231F8F4E92FF0E0D3
:100300008827EA57FE4F8F4F0C949006B701BB0128
:100310009801AF01B3019D01BE01C401C801CE0126
:10032000D201D601DC01E0019D01E401EA01EE0108
:10033000809180008F7780938000E22FF0E0EE0FB5
:10034000FF1FE458FE4FA591B4918FB7F894EC913C
:10035000611148C040954E234C938FBF0895809102
:1003600080008F7DE8CF80918000877FE4CF84B5C7
:100370008F7784BDE2CF84B58F7DFBCF8091B000B5
:100380008F778093B000D9CF8091B0008F7DF9CF67
:10039000809190008F7780939000CFCF80919000D4
:1003A0008F7DF9CF80919000877FF5CF8091A0005D
:1003B0008F778093A000C1CF8091A0008F7DF9CF6F
:1003C0008091A000877FF5CF809120018F77809367
:1003D0002001B3CF809120018F7DF9CF8091200142
:1003E000877FF5CF4E2BB8CF3FB7F894809121028D
:1003F00090912202A0912302B091240226B5A89BDD
:1004000005C02F3F19F00196A11DB11D3FBFBA2FA6
:10041000A92F982F8827BC01CD01620F711D811D66
:10042000911D42E0660F771F881F991F4A95D1F7EB
:100430000895AF92BF92CF92DF92EF92FF920F9307
:100440001F93CF93DF936C017B018B01040F151F6A
:10045000EB015E01AE18BF08C017D10759F06991D2
:10046000D601ED91FC910190F081E02DC601199526
:10047000892B79F7C501DF91CF911F910F91FF90E3
:10048000EF90DF90CF90BF90AF900895FC01538D17
:10049000448D252F30E0842F90E0821B930B54175E
:1004A00010F0CF96089501970895FC01918D828DEB
:1004B000981761F0A28DAE0FBF2FB11D5D968C9184
:1004C000928D9F5F9F73928F90E008958FEF9FEFC3
:1004D0000895FC01918D828D981731F0828DE80F7F
:1004E000F11D858D90E008958FEF9FEF0895FC0139
:1004F000918D228D892F90E0805C9F4F821B910906
:100500008F739927089585E292E00E94770221E097
:10051000892B09F420E0822F0895FC01A48DA80FF7
:10052000B92FB11DA35ABF4F2C91848D90E0019635
:100530008F739927848FA689B7892C93A089B18955
:100540008C91837080648C93938D848D981306C0F6
:100550000288F389E02D80818F7D80830895EF925A
:10056000FF920F931F93CF93DF93EC0181E0888F6D
:100570009B8D8C8D98131AC0E889F989808185FF3D
:1005800015C09FB7F894EE89FF896083E889F989DF
:1005900080818370806480839FBF81E090E0DF91E1
:1005A000CF911F910F91FF90EF900895F62E0B8D34
:1005B00010E00F5F1F4F0F731127E02E8C8D8E11EF
:1005C0000CC00FB607FCFACFE889F989808185FF56
:1005D000F5CFCE010E948D02F1CFEB8DEC0FFD2FF8
:1005E000F11DE35AFF4FF0829FB7F8940B8FEA8911
:1005F000FB8980818062CFCFCF93DF93EC01888D20
:100600008823B9F0AA89BB89E889F9898C9185FD8D
:1006100003C0808186FD0DC00FB607FCF7CF8C911B
:1006200085FFF2CF808185FFEDCFCE010E948D0244
:10063000E9CFDF91CF91089580E090E0892B29F0F8
:100640000E94830281110E94000080E090E0892BCB
:1006500049F080E090E0892B29F00E940000811190
:100660000E94000080E090E0892B49F080E090E05B
:10067000892B29F00E94000081110E94000080E077
:1006800090E0892B49F080E090E0892B29F00E94CE
:10069000000081110C9400000895FC0101900020DD
:1006A000E9F73197AF01481B590BBC0185E292E095
:1006B0000C9419028F929F92AF92BF920F931F9347
:1006C000CF93DF93CDB7DEB7A1970FB6F894DEBF17
:1006D0000FBECDBF19A2423008F44AE08E010F5D73
:1006E0001F4F842E912CB12CA12CA50194010E94A6
:1006F0004F06E62FB901CA01EA30F4F4E05DD801F3
:10070000EE938D01232B242B252B79F790E080E0AD
:10071000109719F0CD010E944D03A1960FB6F894E1
:10072000DEBF0FBECDBFDF91CF911F910F91BF9064
:10073000AF909F908F900895E95CE1CFCF92DF92C8
:10074000EF92FF92CF93DF936B017C016DE285E224
:1007500092E00E94AF02EC0166277727CB016C196B
:100760007D098E099F094AE00E945A038C0F9D1F44
:10077000DF91CF91FF90EF90DF90CF9008951F927F
:100780000F920FB60F9211242F933F938F939F9345
:10079000AF93BF9380911D0290911E02A0911F0202
:1007A000B091200230911C0223E0230F2D3758F521
:1007B0000196A11DB11D20931C0280931D029093F0
:1007C0001E02A0931F02B0932002809121029091FB
:1007D0002202A0912302B09124020196A11DB11D15
:1007E0008093210290932202A0932302B0932402CB
:1007F000BF91AF919F918F913F912F910F900FBE1D
:100800000F901F90189526E8230F0296A11DB11D89
:10081000D2CF1F920F920FB60F9211240BB60F92E8
:100820002F933F934F935F936F937F938F939F93F8
:10083000AF93BF93EF93FF9385E292E00E948D0206
:10084000FF91EF91BF91AF919F918F917F916F91A8
:100850005F914F913F912F910F900BBE0F900FBE64
:100860000F901F9018951F920F920FB60F921124A0
:100870000BB60F922F938F939F93EF93FF93E0917B
:100880003502F09136028081E0913B02F0913C020A
:1008900082FD1DC0908180913E028F5F8F732091F9
:1008A0003F02821741F0E0913E02F0E0EB5DFD4F28
:1008B000958F80933E02FF91EF919F918F912F91A1
:1008C0000F900BBE0F900FBE0F901F901895808158
:1008D000F2CFCF92DF92EF92FF920F931F93E82F08
:1008E000F92F05C0015011092109310961F19081E9
:1008F00096239417B9F305C0015011092109310954
:1009000011F1908196239413F7CFC12CD12CE12CB7
:10091000F12C0AC08FEFC81AD80AE80AF80A0C1599
:100920001D052E053F0579F080818623841791F3FC
:100930006C2D7D2D8E2D9F2D1F910F91FF90EF908F
:10094000DF90CF90089560E070E080E090E01F912C
:100950000F91FF90EF90DF90CF900895789484B539
:10096000826084BD84B5816084BD85B5826085BDAB
:1009700085B5816085BD80916E00816080936E0039
:10098000109281008091810082608093810080912B
:1009900081008160809381008091800081608093DC
:1009A00080008091B10084608093B1008091B0009C
:1009B00081608093B000809191008260809391006B
:1009C000809191008160809391008091900081607E
:1009D000809390008091A10082608093A10080911B
:1009E000A10081608093A1008091A000816080932C
:1009F000A0008091210182608093210180912101DA
:100A00008160809321018091200181608093200189
:100A100080917A00846080937A0080917A0082606D
:100A200080937A0080917A00816080937A0080912F
:100A30007A00806880937A001092C100E0913502BC
:100A4000F091360282E08083E0913102F09132022F
:100A50001082E0913302F09134028FEC8083109287
:100A60003D02E0913902F0913A0286E08083E09104
:100A70003702F0913802808180618083E0913702F3
:100A8000F0913802808188608083E0913702F09194
:100A90003802808180688083E0913702F0913802CB
:100AA00080818F7D8083E9EEF1E02491E3EAF1E03B
:100AB00084918111AFC0E8EEF1E02491E2EAF1E027
:100AC00084918823C1F090E0880F991FFC01E85BB6
:100AD000FE4FA591B491FC01E458FE4FC591D4910D
:100AE0003FB7F8949C91822F809598239C9398818E
:100AF000892388833FBF53E0252E312CCFE0D0E0FF
:100B00006AE3462E512C612C712C60E08DE00E942E
:100B10006801C1010197F1F761E08DE00E94680171
:100B2000CE010197F1F760E08DE00E946801E8EEE8
:100B3000F1E06491E2EAF1E08491E82FF0E0EE0F59
:100B4000FF1FEE59FE4F8591949100E412E42FE0CF
:100B500030E0462F0E9469046115710581059105F9
:100B600029F06F5F7F4F8F4F9F4F9F70A3019201BE
:100B70000E947106209318023093190240931A02C2
:100B800050931B022035310541055105DCF44AE044
:100B900061E070E080E090E00E945A0382E192E020
:100BA0000E944D03609118027091190280911A02FF
:100BB00090911B0297FF42C00E949E0384E192E045
:100BC0000E944D030E94F4016B017C018CE2882E8F
:100BD00099249394A12CB12C0E94F4016C197D09E5
:100BE0008E099F09683E734081059105A8F3F1E0E5
:100BF0008F1A9108A108B10828EEC20E23E0D21E78
:100C0000E11CF11C81149104A104B10429F70E9494
:100C10001C037BCF90E0880F991FFC01E85BFE4F1F
:100C2000A591B491FC01E458FE4F859194918FB742
:100C3000F894EC91E22BEC938FBF3DCF4AE00E94F9
:100C40005A03BCCFE5E2F2E01382128288EE93E011
:100C5000A0E0B0E084839583A683B78384E092E02C
:100C60009183808385EC90E09587848784EC90E085
:100C70009787868780EC90E0918B808B81EC90E069
:100C8000938B828B82EC90E0958B848B86EC90E04A
:100C9000978B868B118E128E138E148E0895A1E27F
:100CA0001A2EAA1BBB1BFD010DC0AA1FBB1FEE1FE6
:100CB000FF1FA217B307E407F50720F0A21BB30B31
:100CC000E40BF50B661F771F881F991F1A9469F7AD
:100CD00060957095809590959B01AC01BD01CF0109
:100CE0000895052E97FB1EF400940E94880657FD78
:100CF00007D00E944F0607FC03D04EF40C948806E0
:100D000050954095309521953F4F4F4F5F4F089537
:100D100090958095709561957F4F8F4F9F4F089567
:100D2000EE0FFF1F881F8BBF0790F691E02D1994DF
:040D3000F894FFCF65
:100D340000000000AF0219024602FC0277025502CD
:080D440069022C000D0A0000F9
:00000001FF
